:18300000010020ED79C900000000000000000000000000000000000068
:18301800000000000000000000000000000000000000000000000000A0
:1830300000000000000000000000000000000000000000000000000088
:1830480000000000000000000000000000000000000000000000000070
:1830600000000000000000000000000000000000000000000000000058
:0E7FF8000000000000000000000000C3003088
:00000001FF
